{"abi":[{"type":"function","name":"setValues","inputs":[{"name":"_one","type":"uint8","internalType":"uint8"},{"name":"_two","type":"uint256","internalType":"uint256"},{"name":"_three","type":"bytes18","internalType":"bytes18"},{"name":"_four","type":"uint8[30]","internalType":"uint8[30]"},{"name":"_five","type":"bytes14","internalType":"bytes14"},{"name":"_six","type":"uint8","internalType":"uint8"}],"outputs":[],"stateMutability":"nonpayable"}],"bytecode":{"object":"0x6080604052348015600e575f5ffd5b506102348061001c5f395ff3fe608060405234801561000f575f5ffd5b5060043610610029575f3560e01c80639e1145891461002d575b5f5ffd5b61004061003b36600461016b565b610042565b005b5f805460ff191660ff88161790556001859055600280546001600160901b031916607086901c179055610078600384601e6100af565b506004805460ff909216600160701b026effffffffffffffffffffffffffffff1990921660909390931c9290921717905550505050565b600183019183908215610132579160200282015f5b8382111561010457833560ff1683826101000a81548160ff021916908360ff16021790555092602001926001016020815f010492830192600103026100c4565b80156101305782816101000a81549060ff02191690556001016020815f01049283019260010302610104565b505b5061013e929150610142565b5090565b5b8082111561013e575f8155600101610143565b803560ff81168114610166575f5ffd5b919050565b5f5f5f5f5f5f6104608789031215610181575f5ffd5b61018a87610156565b95506020870135945060408701356dffffffffffffffffffffffffffff19811681146101b4575f5ffd5b93506104208701888111156101c7575f5ffd5b606088019350356001600160901b0319811681146101e3575f5ffd5b91506101f26104408801610156565b9050929550929550929556fea26469706673582212206b424b36e87977e3b63e5e954067dab114b4d8d5d0580bbfd7345aead906e26864736f6c634300081c0033","linkReferences":{}},"methodIdentifiers":{"setValues(uint8,uint256,bytes18,uint8[30],bytes14,uint8)":"9e114589"},"id":23}