{"abi":[{"type":"function","name":"setValues","inputs":[{"name":"_one","type":"uint8","internalType":"uint8"},{"name":"_two","type":"uint256","internalType":"uint256"},{"name":"_three","type":"bytes18","internalType":"bytes18"},{"name":"_four","type":"uint8[30]","internalType":"uint8[30]"},{"name":"_five","type":"bytes14","internalType":"bytes14"},{"name":"_six","type":"uint8","internalType":"uint8"}],"outputs":[],"stateMutability":"nonpayable"}],"bytecode":{"object":"0x6080604052348015600e575f5ffd5b506102418061001c5f395ff3fe608060405234801561000f575f5ffd5b5060043610610029575f3560e01c80639e1145891461002d575b5f5ffd5b61004061003b366004610178565b610042565b005b5f805460ff191660ff88161790556003859055600180546001600160901b031916607086901c179055610078600284601e6100bc565b505f80546fffffffffffffffffffffffffffffff0019166201000060909490941c9390930261ff0019169290921761010060ff929092169190910217905550505050565b60018301918390821561013f579160200282015f5b8382111561011157833560ff1683826101000a81548160ff021916908360ff16021790555092602001926001016020815f010492830192600103026100d1565b801561013d5782816101000a81549060ff02191690556001016020815f01049283019260010302610111565b505b5061014b92915061014f565b5090565b5b8082111561014b575f8155600101610150565b803560ff81168114610173575f5ffd5b919050565b5f5f5f5f5f5f610460878903121561018e575f5ffd5b61019787610163565b95506020870135945060408701356dffffffffffffffffffffffffffff19811681146101c1575f5ffd5b93506104208701888111156101d4575f5ffd5b606088019350356001600160901b0319811681146101f0575f5ffd5b91506101ff6104408801610163565b9050929550929550929556fea26469706673582212200d7d372ef9bfcb2978fa2e0212024270e5fe89bc6249789c8b60e528386be49d64736f6c634300081c0033","linkReferences":{}},"methodIdentifiers":{"setValues(uint8,uint256,bytes18,uint8[30],bytes14,uint8)":"9e114589"},"id":23}