{"abi":[{"type":"function","name":"loopDoWhile","inputs":[],"outputs":[],"stateMutability":"pure"},{"type":"function","name":"loopFor","inputs":[],"outputs":[],"stateMutability":"pure"},{"type":"function","name":"loopWhile","inputs":[],"outputs":[],"stateMutability":"pure"}],"bytecode":{"object":"0x6080604052348015600e575f5ffd5b5061012e8061001c5f395ff3fe6080604052348015600e575f5ffd5b5060043610603a575f3560e01c80633a79239314603e578063519c13571460465780639671972814604c575b5f5ffd5b60446052565b005b6044607a565b60446096565b5f5f5b600a8110156076576065818360cd565b915080606f8160e3565b9150506055565b5050565b5f805b6014811015607657608d818360cd565b9150600101607d565b5f5f5b60a1818360cd565b91508060ab8160e3565b915050600a81106099575050565b634e487b7160e01b5f52601160045260245ffd5b8082018082111560dd5760dd60b9565b92915050565b5f6001820160f15760f160b9565b506001019056fea26469706673582212208a39c0953dbf7f9a61cd03960a47f69647ed515154c2f1c18f88e1f5e4d2e1ba64736f6c634300081c0033","linkReferences":{}},"methodIdentifiers":{"loopDoWhile()":"96719728","loopFor()":"519c1357","loopWhile()":"3a792393"},"id":23}