{"abi":[{"type":"function","name":"loopDoWhile","inputs":[],"outputs":[],"stateMutability":"pure"},{"type":"function","name":"loopFor","inputs":[],"outputs":[],"stateMutability":"pure"},{"type":"function","name":"loopWhile","inputs":[],"outputs":[],"stateMutability":"pure"}],"bytecode":{"object":"0x6080604052348015600e575f5ffd5b5060cd80601a5f395ff3fe6080604052348015600e575f5ffd5b5060043610603a575f3560e01c80633a79239314603e578063519c13571460465780639671972814604c575b5f5ffd5b60446052565b005b6044606c565b60446082565b5f5f5b600a811015606857908101906001016055565b5050565b5f5f5b601481101560685790810190600101606f565b5f5f5b90810190600101600a8110608557505056fea264697066735822122002abea20e2a7a6d9192045a00a0950a293dea958a182d06ef29c13fd358fd02264736f6c634300081c0033","linkReferences":{}},"methodIdentifiers":{"loopDoWhile()":"96719728","loopFor()":"519c1357","loopWhile()":"3a792393"},"id":23}