{"abi":[{"type":"function","name":"initArray","inputs":[],"outputs":[],"stateMutability":"nonpayable"}],"bytecode":{"object":"0x6080604052348015600e575f5ffd5b5060ac80601a5f395ff3fe6080604052348015600e575f5ffd5b50600436106026575f3560e01c806382a8181b14602a575b5f5ffd5b60306032565b005b5f5b60c88110156073575f8054600181810183559180527f290decd9548b62a8d60345a988386fc84ba6bc95484008f6362f93160ef3e56301829055016034565b5056fea2646970667358221220fe36db8746b54945c77a9b0ad02fb3331479180368d8decf425dd02947416f1164736f6c634300081c0033","linkReferences":{}},"methodIdentifiers":{"initArray()":"82a8181b"},"id":24}