{"abi":[{"type":"constructor","inputs":[],"stateMutability":"nonpayable"},{"type":"function","name":"initArray","inputs":[],"outputs":[],"stateMutability":"pure"}],"bytecode":{"object":"0x6080604052348015600e575f5ffd5b505f5b60c8811015603257805f8260c8811060295760296037565b01556001016011565b50604b565b634e487b7160e01b5f52603260045260245ffd5b60628060565f395ff3fe6080604052348015600e575f5ffd5b50600436106026575f3560e01c806382a8181b14602a575b5f5ffd5b00fea2646970667358221220a3a59d4c528f2d063136c24e0d852a78283cc1c5d543485b6289c8704bd23c2d64736f6c634300081c0033","linkReferences":{}},"deployedBytecode":{"object":"0x6080604052348015600e575f5ffd5b50600436106026575f3560e01c806382a8181b14602a575b5f5ffd5b00fea2646970667358221220a3a59d4c528f2d063136c24e0d852a78283cc1c5d543485b6289c8704bd23c2d64736f6c634300081c0033","linkReferences":{}},"methodIdentifiers":{"initArray()":"82a8181b"},"id":24}