{"abi":[{"type":"function","name":"call","inputs":[{"name":"number","type":"uint256","internalType":"uint256"}],"outputs":[{"name":"flag","type":"bool","internalType":"bool"}],"stateMutability":"pure"}],"bytecode":{"object":"0x6080604052348015600e575f5ffd5b5060b780601a5f395ff3fe6080604052348015600e575f5ffd5b50600436106026575f3560e01c80632b09692614602a575b5f5ffd5b60396035366004606b565b604d565b604051901515815260200160405180910390f35b5f81156066576064821015606657816032146066575060015b919050565b5f60208284031215607a575f5ffd5b503591905056fea2646970667358221220164e6d7690c8044c814f08f93ff8e2839eb1b71c53031ee7f7fa62b3f7180ad864736f6c634300081c0033","linkReferences":{}},"methodIdentifiers":{"call(uint256)":"2b096926"},"id":23}