{"abi":[{"type":"function","name":"call","inputs":[{"name":"number","type":"uint256","internalType":"uint256"}],"outputs":[{"name":"","type":"bool","internalType":"bool"}],"stateMutability":"pure"}],"bytecode":{"object":"0x6080604052348015600e575f5ffd5b5060c780601a5f395ff3fe6080604052348015600e575f5ffd5b50600436106026575f3560e01c80632b09692614602a575b5f5ffd5b60396035366004607b565b604d565b604051901515815260200160405180910390f35b5f5f82118015605d575081603214155b801560685750606482105b15607457506001919050565b505f919050565b5f60208284031215608a575f5ffd5b503591905056fea26469706673582212209edff8fa469202b754ed5949b692cdc81aa3b7c707a4337b454999e7f575662e64736f6c634300081c0033","linkReferences":{}},"methodIdentifiers":{"call(uint256)":"2b096926"},"id":23}