{"abi":[{"type":"function","name":"callFor","inputs":[],"outputs":[],"stateMutability":"view"},{"type":"function","name":"myArray","inputs":[{"name":"","type":"uint256","internalType":"uint256"}],"outputs":[{"name":"","type":"uint256","internalType":"uint256"}],"stateMutability":"view"}],"bytecode":{"object":"0x6101c060405260016080908152600260a052600360c052600460e052600561010052600661012052600761014052600861016052600961018052600a6101a0819052604a915f91605a565b503480156055575f5ffd5b5060b5565b828054828255905f5260205f209081019282156095579160200282015b828111156095578251829060ff169055916020019190600101906077565b50609f92915060a3565b5090565b5b80821115609f575f815560010160a4565b61010b806100c25f395ff3fe6080604052348015600e575f5ffd5b50600436106030575f3560e01c8063b34aa2b1146034578063cc3e57d914603c575b5f5ffd5b603a605d565b005b604b6047366004609c565b607f565b60405190815260200160405180910390f35b5f8054905b81811015607b576001018060748160b2565b9150506062565b5050565b5f8181548110608c575f80fd5b5f91825260209091200154905081565b5f6020828403121560ab575f5ffd5b5035919050565b5f6001820160ce57634e487b7160e01b5f52601160045260245ffd5b506001019056fea264697066735822122086e1f2d6e4ed62c92efea4eff970b8c823cca2703994d2da6c4a4f471e39b41464736f6c634300081c0033","linkReferences":{}},"methodIdentifiers":{"callFor()":"b34aa2b1","myArray(uint256)":"cc3e57d9"},"id":23}