{"abi":[{"type":"function","name":"add","inputs":[{"name":"myArray","type":"uint256[]","internalType":"uint256[]"}],"outputs":[{"name":"sum","type":"uint256","internalType":"uint256"}],"stateMutability":"pure"}],"bytecode":{"object":"0x6080604052348015600e575f5ffd5b506101b98061001c5f395ff3fe608060405234801561000f575f5ffd5b5060043610610029575f3560e01c806310b0b5d51461002d575b5f5ffd5b61004061003b3660046100a7565b610052565b60405190815260200160405180910390f35b80515f90815b8181101561008c575f8390508482815181106100765761007661016f565b6020908102919091010151019250600101610058565b5050919050565b634e487b7160e01b5f52604160045260245ffd5b5f602082840312156100b7575f5ffd5b813567ffffffffffffffff8111156100cd575f5ffd5b8201601f810184136100dd575f5ffd5b803567ffffffffffffffff8111156100f7576100f7610093565b8060051b604051601f19603f830116810181811067ffffffffffffffff8211171561012457610124610093565b604052918252602081840181019290810187841115610141575f5ffd5b6020850194505b8385101561016457843580825260209586019590935001610148565b509695505050505050565b634e487b7160e01b5f52603260045260245ffdfea264697066735822122058a250f5711561961df5589aed44aeeae5a19a768eea5618822909564dbca2ce64736f6c634300081c0033","linkReferences":{}},"methodIdentifiers":{"add(uint256[])":"10b0b5d5"},"id":23}