{"abi":[{"type":"function","name":"add","inputs":[{"name":"myArray","type":"uint256[]","internalType":"uint256[]"}],"outputs":[{"name":"sum","type":"uint256","internalType":"uint256"}],"stateMutability":"pure"}],"bytecode":{"object":"0x6080604052348015600e575f5ffd5b506101e18061001c5f395ff3fe608060405234801561000f575f5ffd5b5060043610610029575f3560e01c806310b0b5d51461002d575b5f5ffd5b61004061003b3660046100aa565b610052565b60405190815260200160405180910390f35b80515f90815b8181101561008f5783818151811061007257610072610172565b6020026020010151836100859190610186565b9250600101610058565b5050919050565b634e487b7160e01b5f52604160045260245ffd5b5f602082840312156100ba575f5ffd5b813567ffffffffffffffff8111156100d0575f5ffd5b8201601f810184136100e0575f5ffd5b803567ffffffffffffffff8111156100fa576100fa610096565b8060051b604051601f19603f830116810181811067ffffffffffffffff8211171561012757610127610096565b604052918252602081840181019290810187841115610144575f5ffd5b6020850194505b838510156101675784358082526020958601959093500161014b565b509695505050505050565b634e487b7160e01b5f52603260045260245ffd5b808201808211156101a557634e487b7160e01b5f52601160045260245ffd5b9291505056fea26469706673582212207198efd506629093ed523d73256e2922ca54e6a21a1f98a129096d7b7087221864736f6c634300081c0033","linkReferences":{}},"methodIdentifiers":{"add(uint256[])":"10b0b5d5"},"id":23}