{"abi":[{"type":"constructor","inputs":[{"name":"_owners","type":"address[]","internalType":"address[]"},{"name":"_required","type":"uint256","internalType":"uint256"}],"stateMutability":"nonpayable"},{"type":"receive","stateMutability":"payable"},{"type":"function","name":"confirmTransaction","inputs":[{"name":"transactionId","type":"uint256","internalType":"uint256"}],"outputs":[],"stateMutability":"nonpayable"},{"type":"function","name":"confirmations","inputs":[{"name":"","type":"uint256","internalType":"uint256"},{"name":"","type":"address","internalType":"address"}],"outputs":[{"name":"","type":"bool","internalType":"bool"}],"stateMutability":"view"},{"type":"function","name":"executeTransaction","inputs":[{"name":"transactionId","type":"uint256","internalType":"uint256"}],"outputs":[],"stateMutability":"nonpayable"},{"type":"function","name":"getConfirmations","inputs":[{"name":"transactionId","type":"uint256","internalType":"uint256"}],"outputs":[{"name":"","type":"address[]","internalType":"address[]"}],"stateMutability":"view"},{"type":"function","name":"getTransactionCount","inputs":[],"outputs":[{"name":"","type":"uint256","internalType":"uint256"}],"stateMutability":"view"},{"type":"function","name":"isOwner","inputs":[{"name":"account","type":"address","internalType":"address"}],"outputs":[{"name":"","type":"bool","internalType":"bool"}],"stateMutability":"view"},{"type":"function","name":"owners","inputs":[{"name":"","type":"uint256","internalType":"uint256"}],"outputs":[{"name":"","type":"address","internalType":"address"}],"stateMutability":"view"},{"type":"function","name":"required","inputs":[],"outputs":[{"name":"","type":"uint256","internalType":"uint256"}],"stateMutability":"view"},{"type":"function","name":"submitTransaction","inputs":[{"name":"destination","type":"address","internalType":"address"},{"name":"value","type":"uint256","internalType":"uint256"}],"outputs":[],"stateMutability":"nonpayable"},{"type":"function","name":"transactions","inputs":[{"name":"","type":"uint256","internalType":"uint256"}],"outputs":[{"name":"transactionID","type":"uint256","internalType":"uint256"},{"name":"destination","type":"address","internalType":"address"},{"name":"value","type":"uint256","internalType":"uint256"},{"name":"confirmationCount","type":"uint256","internalType":"uint256"},{"name":"executionTimestamp","type":"uint256","internalType":"uint256"},{"name":"executed","type":"bool","internalType":"bool"}],"stateMutability":"view"},{"type":"event","name":"Confirmation","inputs":[{"name":"owner","type":"address","indexed":true,"internalType":"address"},{"name":"transactionId","type":"uint256","indexed":true,"internalType":"uint256"}],"anonymous":false},{"type":"event","name":"Deposit","inputs":[{"name":"sender","type":"address","indexed":true,"internalType":"address"},{"name":"value","type":"uint256","indexed":false,"internalType":"uint256"}],"anonymous":false},{"type":"event","name":"Execution","inputs":[{"name":"transactionId","type":"uint256","indexed":true,"internalType":"uint256"}],"anonymous":false},{"type":"event","name":"ExecutionFailure","inputs":[{"name":"transactionId","type":"uint256","indexed":true,"internalType":"uint256"}],"anonymous":false},{"type":"event","name":"Submission","inputs":[{"name":"transactionId","type":"uint256","indexed":true,"internalType":"uint256"}],"anonymous":false}],"bytecode":{"object":"0x608060405234801561000f575f5ffd5b50604051610f5f380380610f5f83398101604081905261002e916101e7565b5f8251116100755760405162461bcd60e51b815260206004820152600f60248201526e13dddb995c9cc81c995c5d5a5c9959608a1b60448201526064015b60405180910390fd5b5f81118015610085575081518111155b6100e25760405162461bcd60e51b815260206004820152602860248201527f496e76616c6964206e756d626572206f6620726571756972656420636f6e6669604482015267726d6174696f6e7360c01b606482015260840161006c565b5f5b82518110156101ae575f6001600160a01b0316838281518110610109576101096102bb565b60200260200101516001600160a01b0316036101575760405162461bcd60e51b815260206004820152600d60248201526c24b73b30b634b21037bbb732b960991b604482015260640161006c565b5f83828151811061016a5761016a6102bb565b6020908102919091018101518254600180820185555f9485529290932090920180546001600160a01b0319166001600160a01b0390931692909217909155016100e4565b50600155506102cf565b634e487b7160e01b5f52604160045260245ffd5b80516001600160a01b03811681146101e2575f5ffd5b919050565b5f5f604083850312156101f8575f5ffd5b82516001600160401b0381111561020d575f5ffd5b8301601f8101851361021d575f5ffd5b80516001600160401b03811115610236576102366101b8565b604051600582901b90603f8201601f191681016001600160401b0381118282101715610264576102646101b8565b604052918252602081840181019290810188841115610281575f5ffd5b6020850194505b838510156102a757610299856101cc565b815260209485019401610288565b506020969096015195979596505050505050565b634e487b7160e01b5f52603260045260245ffd5b610c83806102dc5f395ff3fe608060405260043610610092575f3560e01c80639ace38c2116100575780639ace38c2146101b5578063b5dc40c31461020b578063c01a8c8414610237578063dc8452cd14610256578063ee22610b1461026b575f5ffd5b8063025e7c27146100d25780631d43b6531461010e5780632e7700f01461012f5780632f54bf6e1461014d5780633411c81c1461017c575f5ffd5b366100ce5760405134815233907fe1fffcc4923d04b559f4d29a8bfc6cda04eb5b0d3c460751c2402c5c5cc9109c9060200160405180910390a2005b5f5ffd5b3480156100dd575f5ffd5b506100f16100ec366004610aee565b61028a565b6040516001600160a01b0390911681526020015b60405180910390f35b348015610119575f5ffd5b5061012d610128366004610b20565b6102b1565b005b34801561013a575f5ffd5b506002545b604051908152602001610105565b348015610158575f5ffd5b5061016c610167366004610b48565b61045d565b6040519015158152602001610105565b348015610187575f5ffd5b5061016c610196366004610b68565b600360209081525f928352604080842090915290825290205460ff1681565b3480156101c0575f5ffd5b506101d46101cf366004610aee565b6104b7565b604080519687526001600160a01b0390951660208701529385019290925260608401526080830152151560a082015260c001610105565b348015610216575f5ffd5b5061022a610225366004610aee565b610508565b6040516101059190610b92565b348015610242575f5ffd5b5061012d610251366004610aee565b6106c2565b348015610261575f5ffd5b5061013f60015481565b348015610276575f5ffd5b5061012d610285366004610aee565b610866565b5f8181548110610298575f80fd5b5f918252602090912001546001600160a01b0316905081565b6102ba3361045d565b6102df5760405162461bcd60e51b81526004016102d690610bdd565b60405180910390fd5b6040805160c081018252600280548083526001600160a01b03868116602085019081528486018781525f606087018181526080880182815260a0890183815260018801895588845298517f405787fa12a823e0f2b7631cc41b3ba8828b3321ca811111fa75cd3aa3bb5ace60069098029788015593517f405787fa12a823e0f2b7631cc41b3ba8828b3321ca811111fa75cd3aa3bb5acf870180546001600160a01b031916919096161790945590517f405787fa12a823e0f2b7631cc41b3ba8828b3321ca811111fa75cd3aa3bb5ad085015591517f405787fa12a823e0f2b7631cc41b3ba8828b3321ca811111fa75cd3aa3bb5ad1840155517f405787fa12a823e0f2b7631cc41b3ba8828b3321ca811111fa75cd3aa3bb5ad283015592517f405787fa12a823e0f2b7631cc41b3ba8828b3321ca811111fa75cd3aa3bb5ad3909101805460ff19169115159190911790555491517fc0ba8fe4b176c1714197d43b9cc6bcf797a4a7461c5fe8d0ef6e184ae7601e519190a25050565b5f805b5f548110156104af57826001600160a01b03165f828154811061048557610485610c00565b5f918252602090912001546001600160a01b0316036104a75750600192915050565b600101610460565b505f92915050565b600281815481106104c6575f80fd5b5f9182526020909120600690910201805460018201546002830154600384015460048501546005909501549395506001600160a01b0390921693909260ff1686565b5f80546060919067ffffffffffffffff81111561052757610527610c14565b604051908082528060200260200182016040528015610550578160200160208202803683370190505b5090505f805b5f5481101561061c5760035f8681526020019081526020015f205f5f838154811061058357610583610c00565b5f9182526020808320909101546001600160a01b0316835282019290925260400190205460ff1615610614575f81815481106105c1576105c1610c00565b905f5260205f20015f9054906101000a90046001600160a01b03168383815181106105ee576105ee610c00565b6001600160a01b0390921660209283029190910190910152610611600183610c28565b91505b600101610556565b505f8167ffffffffffffffff81111561063757610637610c14565b604051908082528060200260200182016040528015610660578160200160208202803683370190505b5090505f5b828110156106b95783818151811061067f5761067f610c00565b602002602001015182828151811061069957610699610c00565b6001600160a01b0390921660209283029190910190910152600101610665565b50949350505050565b6106cb3361045d565b6106e75760405162461bcd60e51b81526004016102d690610bdd565b6002548190811061073a5760405162461bcd60e51b815260206004820152601a60248201527f5472616e73616374696f6e20646f6573206e6f7420657869737400000000000060448201526064016102d6565b5f828152600360209081526040808320338452909152902054829060ff16156107a55760405162461bcd60e51b815260206004820152601d60248201527f5472616e73616374696f6e20616c726561647920636f6e6669726d656400000060448201526064016102d6565b5f8381526003602090815260408083203384529091529020805460ff1916600190811790915560028054859081106107df576107df610c00565b905f5260205f2090600602016003015f8282546107fc9190610c28565b9091555050604051839033907f4a504a94899432a9846e1aa406dceb1bcfd538bb839071d49d1e5e23f5be30ef905f90a36001546002848154811061084357610843610c00565b905f5260205f20906006020160030154106108615761086183610866565b505050565b61086f3361045d565b61088b5760405162461bcd60e51b81526004016102d690610bdd565b600254819081106108de5760405162461bcd60e51b815260206004820152601a60248201527f5472616e73616374696f6e20646f6573206e6f7420657869737400000000000060448201526064016102d6565b81600281815481106108f2576108f2610c00565b5f91825260209091206005600690920201015460ff16156109555760405162461bcd60e51b815260206004820152601c60248201527f5472616e73616374696f6e20616c72656164792065786563757465640000000060448201526064016102d6565b6001546002848154811061096b5761096b610c00565b905f5260205f20906006020160030154106108615760016002848154811061099557610995610c00565b5f9182526020822060069190910201600501805460ff19169215159290921790915560028054859081106109cb576109cb610c00565b5f918252602090912060016006909202010154600280546001600160a01b0390921691869081106109fe576109fe610c00565b905f5260205f209060060201600201546040515f6040518083038185875af1925050503d805f8114610a4b576040519150601f19603f3d011682016040523d82523d5f602084013e610a50565b606091505b505090508015610a895760405184907f33e13ecb54c3076d8e8bb8c2881800a4d972b792045ffae98fdf46df365fed75905f90a2610ae8565b5f60028581548110610a9d57610a9d610c00565b5f9182526020822060069190910201600501805460ff19169215159290921790915560405185917f526441bb6c1aba3c9a4a6ca1d6545da9c2333c8c48343ef398eb858d72b7923691a25b50505050565b5f60208284031215610afe575f5ffd5b5035919050565b80356001600160a01b0381168114610b1b575f5ffd5b919050565b5f5f60408385031215610b31575f5ffd5b610b3a83610b05565b946020939093013593505050565b5f60208284031215610b58575f5ffd5b610b6182610b05565b9392505050565b5f5f60408385031215610b79575f5ffd5b82359150610b8960208401610b05565b90509250929050565b602080825282518282018190525f918401906040840190835b81811015610bd25783516001600160a01b0316835260209384019390920191600101610bab565b509095945050505050565b6020808252600990820152682737ba1037bbb732b960b91b604082015260600190565b634e487b7160e01b5f52603260045260245ffd5b634e487b7160e01b5f52604160045260245ffd5b80820180821115610c4757634e487b7160e01b5f52601160045260245ffd5b9291505056fea26469706673582212204387e0632d7b1aa444cdc2302bcd5556a179d82b1eef3258ee920dad49ceb94264736f6c634300081c0033","linkReferences":{}},"methodIdentifiers":{"confirmTransaction(uint256)":"c01a8c84","confirmations(uint256,address)":"3411c81c","executeTransaction(uint256)":"ee22610b","getConfirmations(uint256)":"b5dc40c3","getTransactionCount()":"2e7700f0","isOwner(address)":"2f54bf6e","owners(uint256)":"025e7c27","required()":"dc8452cd","submitTransaction(address,uint256)":"1d43b653","transactions(uint256)":"9ace38c2"},"id":23}