{"abi":[{"type":"constructor","inputs":[{"name":"_owners","type":"address[]","internalType":"address[]"},{"name":"_required","type":"uint256","internalType":"uint256"}],"stateMutability":"nonpayable"},{"type":"receive","stateMutability":"payable"},{"type":"function","name":"confirmTransaction","inputs":[{"name":"transactionId","type":"uint256","internalType":"uint256"}],"outputs":[],"stateMutability":"nonpayable"},{"type":"function","name":"confirmations","inputs":[{"name":"","type":"uint256","internalType":"uint256"},{"name":"","type":"address","internalType":"address"}],"outputs":[{"name":"","type":"bool","internalType":"bool"}],"stateMutability":"view"},{"type":"function","name":"executeTransaction","inputs":[{"name":"transactionId","type":"uint256","internalType":"uint256"}],"outputs":[],"stateMutability":"nonpayable"},{"type":"function","name":"getConfirmations","inputs":[{"name":"transactionId","type":"uint256","internalType":"uint256"}],"outputs":[{"name":"","type":"address[]","internalType":"address[]"}],"stateMutability":"view"},{"type":"function","name":"getTransactionCount","inputs":[],"outputs":[{"name":"","type":"uint256","internalType":"uint256"}],"stateMutability":"view"},{"type":"function","name":"isOwnerMapping","inputs":[{"name":"","type":"address","internalType":"address"}],"outputs":[{"name":"","type":"bool","internalType":"bool"}],"stateMutability":"view"},{"type":"function","name":"owners","inputs":[{"name":"","type":"uint256","internalType":"uint256"}],"outputs":[{"name":"","type":"address","internalType":"address"}],"stateMutability":"view"},{"type":"function","name":"required","inputs":[],"outputs":[{"name":"","type":"uint256","internalType":"uint256"}],"stateMutability":"view"},{"type":"function","name":"submitTransaction","inputs":[{"name":"destination","type":"address","internalType":"address"},{"name":"value","type":"uint256","internalType":"uint256"}],"outputs":[],"stateMutability":"nonpayable"},{"type":"function","name":"transactions","inputs":[{"name":"","type":"uint256","internalType":"uint256"}],"outputs":[{"name":"destination","type":"address","internalType":"address"},{"name":"value","type":"uint256","internalType":"uint256"},{"name":"confirmationCount","type":"uint8","internalType":"uint8"},{"name":"executed","type":"bool","internalType":"bool"}],"stateMutability":"view"},{"type":"event","name":"Confirmation","inputs":[{"name":"owner","type":"address","indexed":true,"internalType":"address"},{"name":"transactionId","type":"uint256","indexed":true,"internalType":"uint256"}],"anonymous":false},{"type":"event","name":"Execution","inputs":[{"name":"transactionId","type":"uint256","indexed":true,"internalType":"uint256"}],"anonymous":false},{"type":"event","name":"ExecutionFailure","inputs":[{"name":"transactionId","type":"uint256","indexed":true,"internalType":"uint256"}],"anonymous":false},{"type":"event","name":"Submission","inputs":[{"name":"transactionId","type":"uint256","indexed":true,"internalType":"uint256"}],"anonymous":false},{"type":"error","name":"ER","inputs":[]},{"type":"error","name":"NO","inputs":[]}],"bytecode":{"object":"0x608060405234801561000f575f5ffd5b50604051610d56380380610d5683398101604081905261002e916101a7565b81518061004e5760405163abd0de3960e01b815260040160405180910390fd5b5f821161007657808211156100765760405163abd0de3960e01b815260040160405180910390fd5b5f5b8181101561016d575f8482815181106100935761009361027b565b602002602001015190505f6001600160a01b0316816001600160a01b0316036100cf5760405163abd0de3960e01b815260040160405180910390fd5b5f80546001810182557f290decd9548b62a8d60345a988386fc84ba6bc95484008f6362f93160ef3e5630180546001600160a01b0319166001600160a01b03841690811790915581526004602052604090205460ff16156101435760405163abd0de3960e01b815260040160405180910390fd5b6001600160a01b03165f908152600460205260409020805460ff1916600190811790915501610078565b50506001555061028f565b634e487b7160e01b5f52604160045260245ffd5b80516001600160a01b03811681146101a2575f5ffd5b919050565b5f5f604083850312156101b8575f5ffd5b82516001600160401b038111156101cd575f5ffd5b8301601f810185136101dd575f5ffd5b80516001600160401b038111156101f6576101f6610178565b604051600582901b90603f8201601f191681016001600160401b038111828210171561022457610224610178565b604052918252602081840181019290810188841115610241575f5ffd5b6020850194505b83851015610267576102598561018c565b815260209485019401610248565b506020969096015195979596505050505050565b634e487b7160e01b5f52603260045260245ffd5b610aba8061029c5f395ff3fe608060405260043610610092575f3560e01c80639ace38c2116100575780639ace38c21461018f578063b5dc40c3146101e2578063c01a8c841461020e578063dc8452cd1461022d578063ee22610b14610242575f5ffd5b8063025e7c271461009d578063086bb259146100d95780631d43b653146101175780632e7700f0146101385780633411c81c14610156575f5ffd5b3661009957005b5f5ffd5b3480156100a8575f5ffd5b506100bc6100b7366004610922565b610261565b6040516001600160a01b0390911681526020015b60405180910390f35b3480156100e4575f5ffd5b506101076100f3366004610954565b60046020525f908152604090205460ff1681565b60405190151581526020016100d0565b348015610122575f5ffd5b50610136610131366004610974565b610288565b005b348015610143575f5ffd5b506002545b6040519081526020016100d0565b348015610161575f5ffd5b5061010761017036600461099c565b600360209081525f928352604080842090915290825290205460ff1681565b34801561019a575f5ffd5b506101ae6101a9366004610922565b6103c9565b604080516001600160a01b039095168552602085019390935260ff90911691830191909152151560608201526080016100d0565b3480156101ed575f5ffd5b506102016101fc366004610922565b610410565b6040516100d091906109c6565b348015610219575f5ffd5b50610136610228366004610922565b61055f565b348015610238575f5ffd5b5061014860015481565b34801561024d575f5ffd5b5061013661025c366004610922565b6106da565b5f818154811061026f575f80fd5b5f918252602090912001546001600160a01b0316905081565b335f9081526004602052604090205460ff166102b7576040516306a41a2160e11b815260040160405180910390fd5b604080516080810182526001600160a01b038481168252602082018481525f838501818152606085018281526002805460018101825581855296517f405787fa12a823e0f2b7631cc41b3ba8828b3321ca811111fa75cd3aa3bb5ace600390980297880180546001600160a01b031916919097161790955592517f405787fa12a823e0f2b7631cc41b3ba8828b3321ca811111fa75cd3aa3bb5acf860155517f405787fa12a823e0f2b7631cc41b3ba8828b3321ca811111fa75cd3aa3bb5ad09094018054925160ff90951661ffff1990931692909217610100941515949094029390931790555491517fc0ba8fe4b176c1714197d43b9cc6bcf797a4a7461c5fe8d0ef6e184ae7601e519190a25050565b600281815481106103d8575f80fd5b5f9182526020909120600390910201805460018201546002909201546001600160a01b03909116925060ff8082169161010090041684565b60605f6002838154811061042657610426610a11565b5f918252602082206002600390920201015460ff1691508167ffffffffffffffff81111561045657610456610a25565b60405190808252806020026020018201604052801561047f578160200160208202803683370190505b5090505f805b5f548110156105555760035f8781526020019081526020015f205f5f83815481106104b2576104b2610a11565b5f9182526020808320909101546001600160a01b0316835282019290925260400190205460ff161561054d575f81815481106104f0576104f0610a11565b905f5260205f20015f9054906101000a90046001600160a01b031683838151811061051d5761051d610a11565b6001600160a01b03909216602092830291909101909101528161053f81610a4d565b92505060ff84168214610555575b600101610485565b5090949350505050565b335f9081526004602052604090205460ff1661058e576040516306a41a2160e11b815260040160405180910390fd5b600254819081106105b25760405163abd0de3960e01b815260040160405180910390fd5b5f828152600360209081526040808320338452909152902054829060ff16156105ee5760405163abd0de3960e01b815260040160405180910390fd5b5f8381526003602090815260408083203384529091529020805460ff19166001908117909155600280548590811061062857610628610a11565b5f91825260208220600260039092020101805490919061064c90849060ff16610a65565b92506101000a81548160ff021916908360ff16021790555082336001600160a01b03167f4a504a94899432a9846e1aa406dceb1bcfd538bb839071d49d1e5e23f5be30ef60405160405180910390a3600154600284815481106106b1576106b1610a11565b5f91825260209091206002600390920201015460ff16106106d5576106d5836106da565b505050565b335f9081526004602052604090205460ff16610709576040516306a41a2160e11b815260040160405180910390fd5b6002548190811061072d5760405163abd0de3960e01b815260040160405180910390fd5b816002818154811061074157610741610a11565b905f5260205f20906003020160020160019054906101000a900460ff161561077c5760405163abd0de3960e01b815260040160405180910390fd5b6001546002848154811061079257610792610a11565b5f91825260209091206002600390920201015460ff16106106d5576001600284815481106107c2576107c2610a11565b905f5260205f20906003020160020160016101000a81548160ff0219169083151502179055505f600284815481106107fc576107fc610a11565b5f918252602090912060039091020154600280546001600160a01b03909216918690811061082c5761082c610a11565b905f5260205f209060030201600101546040515f6040518083038185875af1925050503d805f8114610879576040519150601f19603f3d011682016040523d82523d5f602084013e61087e565b606091505b5050905080156108b75760405184907f33e13ecb54c3076d8e8bb8c2881800a4d972b792045ffae98fdf46df365fed75905f90a261091c565b5f600285815481106108cb576108cb610a11565b5f9182526020822060026003909202010180549215156101000261ff00199093169290921790915560405185917f526441bb6c1aba3c9a4a6ca1d6545da9c2333c8c48343ef398eb858d72b7923691a25b50505050565b5f60208284031215610932575f5ffd5b5035919050565b80356001600160a01b038116811461094f575f5ffd5b919050565b5f60208284031215610964575f5ffd5b61096d82610939565b9392505050565b5f5f60408385031215610985575f5ffd5b61098e83610939565b946020939093013593505050565b5f5f604083850312156109ad575f5ffd5b823591506109bd60208401610939565b90509250929050565b602080825282518282018190525f918401906040840190835b81811015610a065783516001600160a01b03168352602093840193909201916001016109df565b509095945050505050565b634e487b7160e01b5f52603260045260245ffd5b634e487b7160e01b5f52604160045260245ffd5b634e487b7160e01b5f52601160045260245ffd5b5f60018201610a5e57610a5e610a39565b5060010190565b60ff8181168382160190811115610a7e57610a7e610a39565b9291505056fea2646970667358221220166537acbc8d8a9bf8b329b48825fd5ce958602837c9e9254e754d148d3016cd64736f6c634300081c0033","linkReferences":{}},"methodIdentifiers":{"confirmTransaction(uint256)":"c01a8c84","confirmations(uint256,address)":"3411c81c","executeTransaction(uint256)":"ee22610b","getConfirmations(uint256)":"b5dc40c3","getTransactionCount()":"2e7700f0","isOwnerMapping(address)":"086bb259","owners(uint256)":"025e7c27","required()":"dc8452cd","submitTransaction(address,uint256)":"1d43b653","transactions(uint256)":"9ace38c2"},"id":23}