{"abi":[{"type":"constructor","inputs":[],"stateMutability":"nonpayable"},{"type":"function","name":"call","inputs":[],"outputs":[],"stateMutability":"view"}],"bytecode":{"object":"0x6080604052348015600e575f5ffd5b505f80546001600160a01b0319163317905560c680602b5f395ff3fe6080604052348015600e575f5ffd5b50600436106026575f3560e01c806328b5e32b14602a575b5f5ffd5b60306032565b005b5f546001600160a01b03163314608e5760405162461bcd60e51b815260206004820152601b60248201527f4572726f723a20596f7520617265206e6f742061206f776e6572210000000000604482015260640160405180910390fd5b56fea2646970667358221220f9f78de5dfb311394b8fa8d495e5286185a882ce87773901f3115ac22a92efc164736f6c634300081c0033","linkReferences":{}},"methodIdentifiers":{"call()":"28b5e32b"},"id":23}