{"abi":[{"type":"constructor","inputs":[],"stateMutability":"nonpayable"},{"type":"function","name":"call","inputs":[],"outputs":[],"stateMutability":"view"},{"type":"error","name":"ErrorS","inputs":[]}],"bytecode":{"object":"0x60a0604052348015600e575f5ffd5b503360805260805160b260275f395f6034015260b25ff3fe6080604052348015600e575f5ffd5b50600436106026575f3560e01c806328b5e32b14602a575b5f5ffd5b60306032565b005b7f00000000000000000000000000000000000000000000000000000000000000006001600160a01b03163314607a5760405163d6a1f83f60e01b815260040160405180910390fd5b56fea26469706673582212206c741c91dced9e70adcedb6cc21b0f2a730561ba812d6b00e53fffecbc8f7c8c64736f6c634300081c0033","linkReferences":{}},"methodIdentifiers":{"call()":"28b5e32b"},"id":23}