{"abi":[{"type":"function","name":"swap","inputs":[{"name":"a","type":"uint256","internalType":"uint256"},{"name":"b","type":"uint256","internalType":"uint256"}],"outputs":[{"name":"","type":"uint256","internalType":"uint256"},{"name":"","type":"uint256","internalType":"uint256"}],"stateMutability":"pure"}],"bytecode":{"object":"0x6080604052348015600e575f5ffd5b5060a680601a5f395ff3fe6080604052348015600e575f5ffd5b50600436106026575f3560e01c8063d96073cf14602a575b5f5ffd5b603860353660046051565b91565b6040805192835260208301919091520160405180910390f35b5f5f604083850312156061575f5ffd5b5050803592602090910135915056fea264697066735822122078f67db157d8d8bfea084969d522962ae51ab05342aa775dd0cbc7e3c59be16b64736f6c634300081c0033","linkReferences":{}},"methodIdentifiers":{"swap(uint256,uint256)":"d96073cf"},"id":23}