{"abi":[{"type":"function","name":"swap","inputs":[{"name":"a","type":"uint256","internalType":"uint256"},{"name":"b","type":"uint256","internalType":"uint256"}],"outputs":[{"name":"","type":"uint256","internalType":"uint256"},{"name":"","type":"uint256","internalType":"uint256"}],"stateMutability":"pure"}],"bytecode":{"object":"0x6080604052348015600e575f5ffd5b506101078061001c5f395ff3fe6080604052348015600e575f5ffd5b50600436106026575f3560e01c8063d96073cf14602a575b5f5ffd5b603960353660046078565b6052565b6040805192835260208301919091520160405180910390f35b5f80605c838560ab565b93506066838560c1565b92506070838560c1565b949293505050565b5f5f604083850312156088575f5ffd5b50508035926020909101359150565b634e487b7160e01b5f52601160045260245ffd5b8082018082111560bb5760bb6097565b92915050565b8181038181111560bb5760bb609756fea2646970667358221220d3246a2db0c4769c9ad84acf42d18aa73bf862fb3eca0ce73740dec281604bd364736f6c634300081c0033","linkReferences":{}},"methodIdentifiers":{"swap(uint256,uint256)":"d96073cf"},"id":23}