{"abi":[{"type":"function","name":"addition","inputs":[{"name":"value","type":"uint256","internalType":"uint256"}],"outputs":[],"stateMutability":"nonpayable"}],"bytecode":{"object":"0x608060405260015f553480156012575f5ffd5b5060c180601e5f395ff3fe6080604052348015600e575f5ffd5b50600436106026575f3560e01c8063543209b714602a575b5f5ffd5b603960353660046051565b603b565b005b805f5f828254604991906067565b909155505050565b5f602082840312156060575f5ffd5b5035919050565b80820180821115608557634e487b7160e01b5f52601160045260245ffd5b9291505056fea26469706673582212206ebf77b88e3d37a750908c8dc567f6b883b053a796d485836e1216b4d31b6f9c64736f6c634300081c0033","linkReferences":{}},"methodIdentifiers":{"addition(uint256)":"543209b7"},"id":0}