{"abi":[{"type":"function","name":"addition","inputs":[{"name":"value","type":"uint256","internalType":"uint256"}],"outputs":[],"stateMutability":"nonpayable"}],"bytecode":{"object":"0x608060405260015f553480156012575f5ffd5b50608e80601e5f395ff3fe6080604052348015600e575f5ffd5b50600436106026575f3560e01c8063543209b714602a575b5f5ffd5b604060353660046042565b5f8054919091019055565b005b5f602082840312156051575f5ffd5b503591905056fea264697066735822122008439751674af07c69a52c3b9d78b000399aee2101aae52c98d9c80a9f48f11d64736f6c634300081c0033","linkReferences":{}},"methodIdentifiers":{"addition(uint256)":"543209b7"},"id":0}