{"abi":[{"type":"function","name":"divisionBy128","inputs":[{"name":"number","type":"uint256","internalType":"uint256"}],"outputs":[{"name":"","type":"uint256","internalType":"uint256"}],"stateMutability":"pure"},{"type":"function","name":"divisionBy2","inputs":[{"name":"number","type":"uint256","internalType":"uint256"}],"outputs":[{"name":"","type":"uint256","internalType":"uint256"}],"stateMutability":"pure"}],"bytecode":{"object":"0x6080604052348015600e575f5ffd5b5060b480601a5f395ff3fe6080604052348015600e575f5ffd5b50600436106030575f3560e01c80630353b6211460345780633c45444b146057575b5f5ffd5b6045603f3660046068565b60071c90565b60405190815260200160405180910390f35b604560623660046068565b60011c90565b5f602082840312156077575f5ffd5b503591905056fea2646970667358221220367b3ec08f80f715e7de18ef0ca472d572ab2e87068846d5aa76cb8dfe873e5364736f6c634300081c0033","linkReferences":{}},"methodIdentifiers":{"divisionBy128(uint256)":"0353b621","divisionBy2(uint256)":"3c45444b"},"id":0}