{"abi":[{"type":"function","name":"divisionBy128","inputs":[{"name":"number","type":"uint256","internalType":"uint256"}],"outputs":[{"name":"","type":"uint256","internalType":"uint256"}],"stateMutability":"pure"},{"type":"function","name":"divisionBy2","inputs":[{"name":"number","type":"uint256","internalType":"uint256"}],"outputs":[{"name":"","type":"uint256","internalType":"uint256"}],"stateMutability":"pure"}],"bytecode":{"object":"0x6080604052348015600e575f5ffd5b5060e88061001b5f395ff3fe6080604052348015600e575f5ffd5b50600436106030575f3560e01c80630353b6211460345780633c45444b146055575b5f5ffd5b6043603f366004607e565b6064565b60405190815260200160405180910390f35b60436060366004607e565b6074565b5f606e6080836094565b92915050565b5f606e6002836094565b5f60208284031215608d575f5ffd5b5035919050565b5f8260ad57634e487b7160e01b5f52601260045260245ffd5b50049056fea2646970667358221220aafade7abe2f9c43dc1874ea56f31ad060ac38f64fea6ec72ae25f3a408fe96964736f6c634300081c0033","linkReferences":{}},"methodIdentifiers":{"divisionBy128(uint256)":"0353b621","divisionBy2(uint256)":"3c45444b"},"id":0}