{"abi":[{"type":"function","name":"subtraction","inputs":[{"name":"value","type":"uint256","internalType":"uint256"}],"outputs":[],"stateMutability":"nonpayable"}],"bytecode":{"object":"0x608060405260645f553480156012575f5ffd5b50608e80601e5f395ff3fe6080604052348015600e575f5ffd5b50600436106026575f3560e01c80636401557d14602a575b5f5ffd5b604060353660046042565b5f8054919091039055565b005b5f602082840312156051575f5ffd5b503591905056fea26469706673582212209670f5d9e329d0f4e9c5b7dc190314b338aafce343fca87a5c53f11a327a0c9464736f6c634300081c0033","linkReferences":{}},"methodIdentifiers":{"subtraction(uint256)":"6401557d"},"id":0}