{"abi":[{"type":"function","name":"subtraction","inputs":[{"name":"value","type":"uint256","internalType":"uint256"}],"outputs":[],"stateMutability":"nonpayable"}],"bytecode":{"object":"0x608060405260645f553480156012575f5ffd5b5060c180601e5f395ff3fe6080604052348015600e575f5ffd5b50600436106026575f3560e01c80636401557d14602a575b5f5ffd5b603960353660046051565b603b565b005b805f5f828254604991906067565b909155505050565b5f602082840312156060575f5ffd5b5035919050565b81810381811115608557634e487b7160e01b5f52601160045260245ffd5b9291505056fea2646970667358221220f0647445761368e789c80116aaf3a1522165d35f2e0a863f61615573cc53e83864736f6c634300081c0033","linkReferences":{}},"methodIdentifiers":{"subtraction(uint256)":"6401557d"},"id":0}